:100000000C942A000C9447000C9447000C94470071
:100010000C9447000C9447000C947F010C9447000B
:100020000C9447000C9447000C9447000C9470010A
:100030000C9447000C9447000C9447000C94470024
:100040000C9447000C9447000C9447000C94470014
:100050000C94470011241FBECFE5D4E0DEBFCDBF16
:1000600010E0A0E6B0E0ECE6F7E002C005900D92EB
:10007000A838B107D9F720E0A8E8B0E001C01D9288
:10008000A039B207E1F70E9432010C94B4030C943A
:10009000000098B39F70282F207F922B98BB98B3B5
:1000A0009E7F98BB98B3926098BB000098B39D7FE9
:1000B00098BB32E43A95F1F700C028B330E1839F52
:1000C000C0011124922F9F70892B88BB88B3826056
:1000D00088BB000088B38D7F88BB83EF91E00197D8
:1000E000F1F700C00000089598B39F70282F207F7B
:1000F000922B98BB98B3916098BB98B3926098BBD1
:10010000000098B39D7F98BB32E43A95F1F700C0A8
:1001100028B330E1839FC0011124922F9F70892B57
:1001200088BB88B3826088BB000088B38D7F88BBA2
:1001300083EF91E00197F1F700C0000008958FEF81
:1001400087BB87E893E10197F1F700C0000082E0E8
:100150000E94490088E20E9449008CE00E94490008
:1001600086E00E94490081E00E94490083EF91E00F
:100170000197F1F700C0000008950F931F93CF93EC
:10018000DF938C01C0E0D0E0F801EC0FFD1F80810F
:10019000882321F00E9474002196F6CFDF91CF9141
:1001A0001F910F910895CF93DF93EA01811108C049
:1001B000603130F4862F8F7080680E94490009C03A
:1001C000813039F4603128F4862F8F70806C0E9462
:1001D0004900CE010E94BD00DF91CF9108951F9389
:1001E000CF93DF93162FAC0160E080E00E94D30034
:1001F00080EC0E94490089E2189F812D1124CDECEA
:1002000082958F70805D0E9474001C9FD12D1124F7
:10021000D695D695D695DC9FC12D1124C695C69549
:10022000C695CC0F8C2F880F880FC80F8D2F8C1B75
:10023000805D0E947400DD0F8D2F880F880FD80F0E
:10024000812F8D1B805D0E9474002FE38DE093E071
:10025000215080409040E1F700C00000DF91CF9135
:100260001F9108958FEF87BB84BB1ABA1DBC1CBCBD
:1002700089E09DE39BBD8ABD1FBC8BE08EBD789459
:1002800089B7806189BF8CE089B98AB188698AB9E8
:1002900080B5866880BD80EE87B987E886B90E9400
:1002A0009F0080918B00883411F0883639F460917A
:1002B0008A008AE690E00E94EF00F1CF8C3411F0C2
:1002C0008C3639F46091820080E690E00E94EF0065
:1002D000E6CF6091880084E790E00E94EF00DFCFD6
:1002E0001F920F920FB60F9211248F938CB18093AF
:1002F0008B008F910F900FBE0F901F9018951F923B
:100300000F920FB60F9211242F933F934F935F9349
:100310006F937F938F939F93AF93BF93EF93FF93CD
:1003200086B1806486B9349BFECF95B180918A00F6
:10033000891718F485B180938A0095B18091820065
:10034000891718F085B180938200ECE8F0E0828193
:100350008383918192836081618325B1208370E0E2
:10036000620F711D690F711D680F711D772314F4E1
:100370006D5F7F4F7595679575956795609389005B
:1003800070E080E090E00E94BB0226E636E646E898
:100390005FE30E94470326E83AE54BE050E40E9401
:1003A0001D020E948A0260938800E3E8F0E099E26F
:1003B000699F912D11248DEC92959F70905D908393
:1003C000689F912D1124969596959695989F812DCD
:1003D0001124869586958695880F282F220F220F47
:1003E000820F292F281B822F805D8183990F892FEF
:1003F000880F880F980F691B605D628380E090E032
:10040000853091054CF45D9BFECFFC01ED57FF4F0D
:1004100020812CB90196F4CFFF91EF91BF91AF915C
:100420009F918F917F916F915F914F913F912F910C
:100430000F900FBE0F901F9018955058BB27AA27FA
:100440000E9435020C940D030E94FF0238F00E94B6
:10045000060320F039F49F3F19F426F40C94FC02B3
:100460000EF4E095E7FB0C94F602E92F0E941E03C0
:1004700058F3BA17620773078407950720F079F4D9
:10048000A6F50C9440030EF4E0950B2EBA2FA02D88
:100490000B01B90190010C01CA01A0011124FF2731
:1004A000591B99F0593F50F4503E68F11A16F0402C
:1004B000A22F232F342F4427585FF3CF469537952B
:1004C0002795A795F0405395C9F77EF41F16BA0BF0
:1004D000620B730B840BBAF09150A1F0FF0FBB1F9E
:1004E000661F771F881FC2F70EC0BA0F621F731FE7
:1004F000841F48F4879577956795B795F7959E3F44
:1005000008F0B0CF9395880F08F09927EE0F9795D4
:10051000879508950E94260388F09F5798F0B92F79
:100520009927B751B0F0E1F0660F771F881F991F28
:100530001AF0BA95C9F714C0B13091F00E94400387
:10054000B1E008950C944003672F782F8827B85F97
:1005500039F0B93FCCF3869577956795B395D9F780
:100560003EF490958095709561957F4F8F4F9F4F8A
:100570000895E89409C097FB3EF490958095709596
:1005800061957F4F8F4F9F4F9923A9F0F92F96E9DF
:10059000BB279395F695879577956795B795F11154
:1005A000F8CFFAF4BB0F11F460FF1BC06F5F7F4FF1
:1005B0008F4F9F4F16C0882311F096E911C0772303
:1005C00021F09EE8872F762F05C0662371F096E80C
:1005D000862F70E060E02AF09A95660F771F881FDB
:1005E000DAF7880F9695879597F9089597F99F6799
:1005F00080E870E060E008959FEF80EC08950024AB
:100600000A941616170618060906089500240A9477
:1006100012161306140605060895092E0394000CFD
:1006200011F4882352F0BB0F40F4BF2B11F460FF8C
:1006300004C06F5F7F4F8F4F9F4F089557FD9058B5
:10064000440F551F59F05F3F71F04795880F97FB96
:10065000991F61F09F3F79F0879508951216130650
:100660001406551FF2CF4695F1DF08C0161617067F
:100670001806991FF1CF86957105610508940895B4
:10068000E894BB2766277727CB0197F908950E9446
:100690005A030C940D030E94FF0238F00E940603D7
:1006A00020F0952311F00C94F6020C94FC02112416
:1006B0000C9441030E941E0370F3959FC1F3950FA4
:1006C00050E0551F629FF001729FBB27F00DB11DD6
:1006D000639FAA27F00DB11DAA1F649F6627B00D66
:1006E000A11D661F829F2227B00DA11D621F739F4F
:1006F000B00DA11D621F839FA00D611D221F749F5D
:100700003327A00D611D231F849F600D211D822FA3
:10071000762F6A2F11249F5750409AF0F1F08823CA
:100720004AF0EE0FFF1FBB1F661F771F881F9150F7
:100730005040A9F79E3F510580F00C94F6020C94AE
:1007400041035F3FE4F3983ED4F386957795679530
:10075000B795F795E7959F5FC1F7FE2B880F911D21
:0C0760009695879597F90895F894FFCFBF
:10076C004D696E2056616C7565004D61782056613F
:10077C006C756500417665726167652056616C75B4
:08078C006500FF3030300A0D5A
:00000001FF
